00000000000000000000P2017110910014SAGE NETCASH PTY LTD          10014                                                                                                                                                                                                                                                                                                                                                                                                                                                              000002434                          
10000000000000000001024530000120171108                          +000000000000000+00000000101010378                                                                                    AA0A                                                                                                                                                                                                                                                                                                                                         000002434                          
2000000000000000000102453000012017110820171108000000000000000000-000000864116097+00000000101084410IBANK PAYMENT FROM   SETTLEMENT                   SAGE PAY  iPay P2769F3        BH60TWCK+000000000 +000000000+000000000 000077669000000003000000000000000000000000000000000000000                             0330            000000000000000                                                                                                   0000000000000000                0000000000000000000                              0000024345151                      
2000000000000000000102453000012017110820171108000000000000000000-000000098895277+00000000101084410IBANK PAYMENT FROM   SETTLEMENT                   SAGE PAY  iPay P2769F3        MO37PPC +000000000 +000000000+000000000 000077669000000003000000000000000000000000000000000000000                             0330            000000000000000                                                                                                   0000000000000000                0000000000000000000                              0000024345151                      
2000000000000000000102453000012017110820171108000000000000000000+000000603436294+00000000101084410IBANK PAYMENT FROM   SETTLEMENT                   SAGE PAY  iPay P2769F3        NJ74PRTD+000000000 +000000000+000000000 000077669000000003000000000000000000000000000000000000000                             0330            000000000000000                                                                                                   0000000000000000                0000000000000000000                              0000024345151                      
2000000000000000000102453000012017110820171108000000000000000000-000000670765478+00000000101084410IBANK PAYMENT FROM   SETTLEMENT                   SAGE PAY  iPay P2769F3        AL53SCR +000000000 +000000000+000000000 000077669000000003000000000000000000000000000000000000000                             0330            000000000000000                                                                                                   0000000000000000                0000000000000000000                              0000024345151                      
2000000000000000000102453000012017110820171108000000000000000000+000000413394466+00000000101084410IBANK PAYMENT FROM   SETTLEMENT                   SAGE PAY  iPay P2769F3        AG39DIP +000000000 +000000000+000000000 000077669000000003000000000000000000000000000000000000000                             0330            000000000000000                                                                                                   0000000000000000                0000000000000000000                              0000024345151                      
2000000000000000000102453000012017110820171108000000000000000000+000000752019947+00000000101084410IBANK PAYMENT FROM   SETTLEMENT                   SAGE PAY  iPay P2769F3        OE67MRB +000000000 +000000000+000000000 000077669000000003000000000000000000000000000000000000000                             0330            000000000000000                                                                                                   0000000000000000                0000000000000000000                              0000024345151                      
2000000000000000000102453000012017110820171108000000000000000000+000000317722018+00000000101084410IBANK PAYMENT FROM   SETTLEMENT                   SAGE PAY  iPay P2769F3        IX99FBP +000000000 +000000000+000000000 000077669000000003000000000000000000000000000000000000000                             0330            000000000000000                                                                                                   0000000000000000                0000000000000000000                              0000024345151                      
2000000000000000000102453000012017110820171108000000000000000000-000000373461107+00000000101084410IBANK PAYMENT FROM   SETTLEMENT                   SAGE PAY  iPay P2769F3        AS39SGAC+000000000 +000000000+000000000 000077669000000003000000000000000000000000000000000000000                             0330            000000000000000                                                                                                   0000000000000000                0000000000000000000                              0000024345151                      
2000000000000000000102453000012017110820171108000000000000000000+000000827035154+00000000101084410IBANK PAYMENT FROM   SETTLEMENT                   SAGE PAY  iPay P2769F3        KS88ACCR+000000000 +000000000+000000000 000077669000000003000000000000000000000000000000000000000                             0330            000000000000000                                                                                                   0000000000000000                0000000000000000000                              0000024345151                      
2000000000000000000102453000012017110820171108000000000000000000-000000221013442+00000000101084410IBANK PAYMENT FROM   SETTLEMENT                   SAGE PAY  iPay P2769F3        BQ35FACR+000000000 +000000000+000000000 000077669000000003000000000000000000000000000000000000000                             0330            000000000000000                                                                                                   0000000000000000                0000000000000000000                              0000024345151                      
2000000000000000000102453000012017110820171108000000000000000000-000000863188387+00000000101084410IBANK PAYMENT FROM   SETTLEMENT                   SAGE PAY  iPay P2769F3        KJ23STOP+000000000 +000000000+000000000 000077669000000003000000000000000000000000000000000000000                             0330            000000000000000                                                                                                   0000000000000000                0000000000000000000                              0000024345151                      
2000000000000000000102453000012017110820171108000000000000000000-000000290509034+00000000101084410IBANK PAYMENT FROM   SETTLEMENT                   SAGE PAY  iPay P2769F3        HG20ADR +000000000 +000000000+000000000 000077669000000003000000000000000000000000000000000000000                             0330            000000000000000                                                                                                   0000000000000000                0000000000000000000                              0000024345151                      
2000000000000000000102453000012017110820171108000000000000000000-000000711504043+00000000101084410IBANK PAYMENT FROM   SETTLEMENT                   SAGE PAY  iPay P2769F3        VN72KIAK+000000000 +000000000+000000000 000077669000000003000000000000000000000000000000000000000                             0330            000000000000000                                                                                                   0000000000000000                0000000000000000000                              0000024345151                      
2000000000000000000102453000012017110820171108000000000000000000+000000224345478+00000000101084410IBANK PAYMENT FROM   SETTLEMENT                   SAGE PAY  iPay P2769F3        YS47FEC +000000000 +000000000+000000000 000077669000000003000000000000000000000000000000000000000                             0330            000000000000000                                                                                                   0000000000000000                0000000000000000000                              0000024345151                      
2000000000000000000102453000012017110820171108000000000000000000-000000511017333+00000000101084410IBANK PAYMENT FROM   SETTLEMENT                   SAGE PAY  iPay P2769F3        CK71DDPH+000000000 +000000000+000000000 000077669000000003000000000000000000000000000000000000000                             0330            000000000000000                                                                                                   0000000000000000                0000000000000000000                              0000024345151                      
2000000000000000000102453000012017110820171108000000000000000000+000000399556373+00000000101084410IBANK PAYMENT FROM   SETTLEMENT                   SAGE PAY  iPay P2769F3        HR96MFEA+000000000 +000000000+000000000 000077669000000003000000000000000000000000000000000000000                             0330            000000000000000                                                                                                   0000000000000000                0000000000000000000                              0000024345151                      
2000000000000000000102453000012017110820171108000000000000000000-000000844827693+00000000101084410IBANK PAYMENT FROM   SETTLEMENT                   SAGE PAY  iPay P2769F3        HG20EQPK+000000000 +000000000+000000000 000077669000000003000000000000000000000000000000000000000                             0330            000000000000000                                                                                                   0000000000000000                0000000000000000000                              0000024345151                      
2000000000000000000102453000012017110820171108000000000000000000+000000616237644+00000000101084410IBANK PAYMENT FROM   SETTLEMENT                   SAGE PAY  iPay P2769F3        NX73FCWK+000000000 +000000000+000000000 000077669000000003000000000000000000000000000000000000000                             0330            000000000000000                                                                                                   0000000000000000                0000000000000000000                              0000024345151                      
2000000000000000000102453000012017110820171108000000000000000000+000000844665223+00000000101084410IBANK PAYMENT FROM   SETTLEMENT                   SAGE PAY  iPay P2769F3        KX78GACA+000000000 +000000000+000000000 000077669000000003000000000000000000000000000000000000000                             0330            000000000000000                                                                                                   0000000000000000                0000000000000000000                              0000024345151                      
2000000000000000000102453000012017110820171108000000000000000000-000000186648230+00000000101084410IBANK PAYMENT FROM   SETTLEMENT                   SAGE PAY  iPay P2769F3        IK86FACA+000000000 +000000000+000000000 000077669000000003000000000000000000000000000000000000000                             0330            000000000000000                                                                                                   0000000000000000                0000000000000000000                              0000024345151                      
2000000000000000000102453000012017110820171108000000000000000000-000000937343042+00000000101084410IBANK PAYMENT FROM   SETTLEMENT                   SAGE PAY  iPay P2769F3        XV91QDA +000000000 +000000000+000000000 000077669000000003000000000000000000000000000000000000000                             0330            000000000000000                                                                                                   0000000000000000                0000000000000000000                              0000024345151                      
2000000000000000000102453000012017110820171108000000000000000000-000000701900449+00000000101084410IBANK PAYMENT FROM   SETTLEMENT                   SAGE PAY  iPay P2769F3        YG96FOSK+000000000 +000000000+000000000 000077669000000003000000000000000000000000000000000000000                             0330            000000000000000                                                                                                   0000000000000000                0000000000000000000                              0000024345151                      
2000000000000000000102453000012017110820171108000000000000000000-000000023367017+00000000101084410IBANK PAYMENT FROM   SETTLEMENT                   SAGE PAY  iPay P2769F3        ES09QDG +000000000 +000000000+000000000 000077669000000003000000000000000000000000000000000000000                             0330            000000000000000                                                                                                   0000000000000000                0000000000000000000                              0000024345151                      
2000000000000000000102453000012017110820171108000000000000000000+000000403696706+00000000101084410IBANK PAYMENT FROM   SETTLEMENT                   SAGE PAY  iPay P2769F3        VX48SPT +000000000 +000000000+000000000 000077669000000003000000000000000000000000000000000000000                             0330            000000000000000                                                                                                   0000000000000000                0000000000000000000                              0000024345151                      
2000000000000000000102453000012017110820171108000000000000000000-000000514863862+00000000101084410IBANK PAYMENT FROM   SETTLEMENT                   SAGE PAY  iPay P2769F3        NM74TFC +000000000 +000000000+000000000 000077669000000003000000000000000000000000000000000000000                             0330            000000000000000                                                                                                   0000000000000000                0000000000000000000                              0000024345151                      
2000000000000000000102453000012017110820171108000000000000000000+000000577935682+00000000101084410IBANK PAYMENT FROM   SETTLEMENT                   SAGE PAY  iPay P2769F3        HR82DSCK+000000000 +000000000+000000000 000077669000000003000000000000000000000000000000000000000                             0330            000000000000000                                                                                                   0000000000000000                0000000000000000000                              0000024345151                      
2000000000000000000102453000012017110820171108000000000000000000-000000073154417+00000000101084410IBANK PAYMENT FROM   SETTLEMENT                   SAGE PAY  iPay P2769F3        ER09CTPD+000000000 +000000000+000000000 000077669000000003000000000000000000000000000000000000000                             0330            000000000000000                                                                                                   0000000000000000                0000000000000000000                              0000024345151                      
2000000000000000000102453000012017110820171108000000000000000000-000000291033362+00000000101084410IBANK PAYMENT FROM   SETTLEMENT                   SAGE PAY  iPay P2769F3        TC40ACR +000000000 +000000000+000000000 000077669000000003000000000000000000000000000000000000000                             0330            000000000000000                                                                                                   0000000000000000                0000000000000000000                              0000024345151                      
2000000000000000000102453000012017110820171108000000000000000000+000000676968355+00000000101084410IBANK PAYMENT FROM   SETTLEMENT                   SAGE PAY  iPay P2769F3        OG48DICR+000000000 +000000000+000000000 000077669000000003000000000000000000000000000000000000000                             0330            000000000000000                                                                                                   0000000000000000                0000000000000000000                              0000024345151                      
2000000000000000000102453000012017110820171108000000000000000000-000000052474965+00000000101084410IBANK PAYMENT FROM   SETTLEMENT                   SAGE PAY  iPay P2769F3        LJ90VASR+000000000 +000000000+000000000 000077669000000003000000000000000000000000000000000000000                             0330            000000000000000                                                                                                   0000000000000000                0000000000000000000                              0000024345151                      
2000000000000000000102453000012017110820171108000000000000000000+000000260316543+00000000101084410IBANK PAYMENT FROM   SETTLEMENT                   SAGE PAY  iPay P2769F3        NH85PCRR+000000000 +000000000+000000000 000077669000000003000000000000000000000000000000000000000                             0330            000000000000000                                                                                                   0000000000000000                0000000000000000000                              0000024345151                      
2000000000000000000102453000012017110820171108000000000000000000+000000565220133+00000000101084410IBANK PAYMENT FROM   SETTLEMENT                   SAGE PAY  iPay P2769F3        YG26FACC+000000000 +000000000+000000000 000077669000000003000000000000000000000000000000000000000                             0330            000000000000000                                                                                                   0000000000000000                0000000000000000000                              0000024345151                      
2000000000000000000102453000012017110820171108000000000000000000-000000724419311+00000000101084410IBANK PAYMENT FROM   SETTLEMENT                   SAGE PAY  iPay P2769F3        YC36CAD +000000000 +000000000+000000000 000077669000000003000000000000000000000000000000000000000                             0330            000000000000000                                                                                                   0000000000000000                0000000000000000000                              0000024345151                      
2000000000000000000102453000012017110820171108000000000000000000-000000219044766+00000000101084410IBANK PAYMENT FROM   SETTLEMENT                   SAGE PAY  iPay P2769F3        JH13FWS +000000000 +000000000+000000000 000077669000000003000000000000000000000000000000000000000                             0330            000000000000000                                                                                                   0000000000000000                0000000000000000000                              0000024345151                      
2000000000000000000102453000012017110820171108000000000000000000+000000750991268+00000000101084410IBANK PAYMENT FROM   SETTLEMENT                   SAGE PAY  iPay P2769F3        QU56QDBD+000000000 +000000000+000000000 000077669000000003000000000000000000000000000000000000000                             0330            000000000000000                                                                                                   0000000000000000                0000000000000000000                              0000024345151                      
2000000000000000000102453000012017110820171108000000000000000000-000000892429215+00000000101084410IBANK PAYMENT FROM   SETTLEMENT                   SAGE PAY  iPay P2769F3        AJ41BXRD+000000000 +000000000+000000000 000077669000000003000000000000000000000000000000000000000                             0330            000000000000000                                                                                                   0000000000000000                0000000000000000000                              0000024345151                      
2000000000000000000102453000012017110820171108000000000000000000-000000260929593+00000000101084410IBANK PAYMENT FROM   SETTLEMENT                   SAGE PAY  iPay P2769F3        HW93QNK +000000000 +000000000+000000000 000077669000000003000000000000000000000000000000000000000                             0330            000000000000000                                                                                                   0000000000000000                0000000000000000000                              0000024345151                      
2000000000000000000102453000012017110820171108000000000000000000+000000836497509+00000000101084410IBANK PAYMENT FROM   SETTLEMENT                   SAGE PAY  iPay P2769F3        QA74QDK +000000000 +000000000+000000000 000077669000000003000000000000000000000000000000000000000                             0330            000000000000000                                                                                                   0000000000000000                0000000000000000000                              0000024345151                      
2000000000000000000102453000012017110820171108000000000000000000-000000081010783+00000000101084410IBANK PAYMENT FROM   SETTLEMENT                   SAGE PAY  iPay P2769F3        CD57MOC +000000000 +000000000+000000000 000077669000000003000000000000000000000000000000000000000                             0330            000000000000000                                                                                                   0000000000000000                0000000000000000000                              0000024345151                      
2000000000000000000102453000012017110820171108000000000000000000-000000947869167+00000000101084410IBANK PAYMENT FROM   SETTLEMENT                   SAGE PAY  iPay P2769F3        NR40PDCW+000000000 +000000000+000000000 000077669000000003000000000000000000000000000000000000000                             0330            000000000000000                                                                                                   0000000000000000                0000000000000000000                              0000024345151                      
2000000000000000000102453000012017110820171108000000000000000000-000000315439153+00000000101084410IBANK PAYMENT FROM   SETTLEMENT                   SAGE PAY  iPay P2769F3        LM70DPIF+000000000 +000000000+000000000 000077669000000003000000000000000000000000000000000000000                             0330            000000000000000                                                                                                   0000000000000000                0000000000000000000                              0000024345151                      
2000000000000000000102453000012017110820171108000000000000000000-000000953028450+00000000101084410IBANK PAYMENT FROM   SETTLEMENT                   SAGE PAY  iPay P2769F3        XV41AFVC+000000000 +000000000+000000000 000077669000000003000000000000000000000000000000000000000                             0330            000000000000000                                                                                                   0000000000000000                0000000000000000000                              0000024345151                      
2000000000000000000102453000012017110820171108000000000000000000+000000894135987+00000000101084410IBANK PAYMENT FROM   SETTLEMENT                   SAGE PAY  iPay P2769F3        EH01NOD +000000000 +000000000+000000000 000077669000000003000000000000000000000000000000000000000                             0330            000000000000000                                                                                                   0000000000000000                0000000000000000000                              0000024345151                      
2000000000000000000102453000012017110820171108000000000000000000+000000838928431+00000000101084410IBANK PAYMENT FROM   SETTLEMENT                   SAGE PAY  iPay P2769F3        TF76FECV+000000000 +000000000+000000000 000077669000000003000000000000000000000000000000000000000                             0330            000000000000000                                                                                                   0000000000000000                0000000000000000000                              0000024345151                      
2000000000000000000102453000012017110820171108000000000000000000-000000688129425+00000000101084410IBANK PAYMENT FROM   SETTLEMENT                   SAGE PAY  iPay P2769F3        KO92PKR +000000000 +000000000+000000000 000077669000000003000000000000000000000000000000000000000                             0330            000000000000000                                                                                                   0000000000000000                0000000000000000000                              0000024345151                      
89999999999999999999                                            -000002509279887                                                                                                           0000000047                                                                                                                                                                                                                                                                                                                            000002434                            
99999999999999999999P20171109   