00000000000000000000P2017110910014SAGE NETCASH PTY LTD          10014                                                                                                                                                                                                                                                                                                                                                                                                                                                              000002434                          
10000000000000000000024530000120171108                          +000000000000000+00000000101010378                                                                                    AA0A                                                                                                                                                                                                                                                                                                                                         000002434                          
2000000000000000000002453000012017110820171108000000000000000000+000000792575505+00000000101084410IBANK PAYMENT FROM   SETTLEMENT                   SAGE PAY  iPay P2769F3        CS65JCR +000000000 +000000000+000000000 000077669000000003000000000000000000000000000000000000000                             0330            000000000000000                                                                                                   0000000000000000                0000000000000000000                              0000024345151                      
2000000000000000000002453000012017110820171108000000000000000000+000000589060573+00000000101084410IBANK PAYMENT FROM   SETTLEMENT                   SAGE PAY  iPay P2769F3        DI20QDM +000000000 +000000000+000000000 000077669000000003000000000000000000000000000000000000000                             0330            000000000000000                                                                                                   0000000000000000                0000000000000000000                              0000024345151                      
2000000000000000000002453000012017110820171108000000000000000000-000000917768892+00000000101084410IBANK PAYMENT FROM   SETTLEMENT                   SAGE PAY  iPay P2769F3        JN95TOD +000000000 +000000000+000000000 000077669000000003000000000000000000000000000000000000000                             0330            000000000000000                                                                                                   0000000000000000                0000000000000000000                              0000024345151                      
2000000000000000000002453000012017110820171108000000000000000000+000000081895087+00000000101084410IBANK PAYMENT FROM   SETTLEMENT                   SAGE PAY  iPay P2769F3        PJ61QPAK+000000000 +000000000+000000000 000077669000000003000000000000000000000000000000000000000                             0330            000000000000000                                                                                                   0000000000000000                0000000000000000000                              0000024345151                      
2000000000000000000002453000012017110820171108000000000000000000+000000978990859+00000000101084410IBANK PAYMENT FROM   SETTLEMENT                   SAGE PAY  iPay P2769F3        LB01DDBD+000000000 +000000000+000000000 000077669000000003000000000000000000000000000000000000000                             0330            000000000000000                                                                                                   0000000000000000                0000000000000000000                              0000024345151                      
2000000000000000000002453000012017110820171108000000000000000000-000000927274861+00000000101084410IBANK PAYMENT FROM   SETTLEMENT                   SAGE PAY  iPay P2769F3        DF95PXDK+000000000 +000000000+000000000 000077669000000003000000000000000000000000000000000000000                             0330            000000000000000                                                                                                   0000000000000000                0000000000000000000                              0000024345151                      
2000000000000000000002453000012017110820171108000000000000000000+000000205499906+00000000101084410IBANK PAYMENT FROM   SETTLEMENT                   SAGE PAY  iPay P2769F3        TC22CHPL+000000000 +000000000+000000000 000077669000000003000000000000000000000000000000000000000                             0330            000000000000000                                                                                                   0000000000000000                0000000000000000000                              0000024345151                      
2000000000000000000002453000012017110820171108000000000000000000-000000553413207+00000000101084410IBANK PAYMENT FROM   SETTLEMENT                   SAGE PAY  iPay P2769F3        QK57PKRP+000000000 +000000000+000000000 000077669000000003000000000000000000000000000000000000000                             0330            000000000000000                                                                                                   0000000000000000                0000000000000000000                              0000024345151                      
2000000000000000000002453000012017110820171108000000000000000000+000000979861661+00000000101084410IBANK PAYMENT FROM   SETTLEMENT                   SAGE PAY  iPay P2769F3        RJ13QNK +000000000 +000000000+000000000 000077669000000003000000000000000000000000000000000000000                             0330            000000000000000                                                                                                   0000000000000000                0000000000000000000                              0000024345151                      
2000000000000000000002453000012017110820171108000000000000000000+000000122888308+00000000101084410IBANK PAYMENT FROM   SETTLEMENT                   SAGE PAY  iPay P2769F3        LM38FFSC+000000000 +000000000+000000000 000077669000000003000000000000000000000000000000000000000                             0330            000000000000000                                                                                                   0000000000000000                0000000000000000000                              0000024345151                      
2000000000000000000002453000012017110820171108000000000000000000-000000349388867+00000000101084410IBANK PAYMENT FROM   SETTLEMENT                   SAGE PAY  iPay P2769F3        WD91SUUA+000000000 +000000000+000000000 000077669000000003000000000000000000000000000000000000000                             0330            000000000000000                                                                                                   0000000000000000                0000000000000000000                              0000024345151                      
2000000000000000000002453000012017110820171108000000000000000000+000000956380664+00000000101084410IBANK PAYMENT FROM   SETTLEMENT                   SAGE PAY  iPay P2769F3        OE37AFDR+000000000 +000000000+000000000 000077669000000003000000000000000000000000000000000000000                             0330            000000000000000                                                                                                   0000000000000000                0000000000000000000                              0000024345151                      
2000000000000000000002453000012017110820171108000000000000000000-000000119566482+00000000101084410IBANK PAYMENT FROM   SETTLEMENT                   SAGE PAY  iPay P2769F3        AN79HLD +000000000 +000000000+000000000 000077669000000003000000000000000000000000000000000000000                             0330            000000000000000                                                                                                   0000000000000000                0000000000000000000                              0000024345151                      
2000000000000000000002453000012017110820171108000000000000000000-000000951944541+00000000101084410IBANK PAYMENT FROM   SETTLEMENT                   SAGE PAY  iPay P2769F3        FH21PCKP+000000000 +000000000+000000000 000077669000000003000000000000000000000000000000000000000                             0330            000000000000000                                                                                                   0000000000000000                0000000000000000000                              0000024345151                      
2000000000000000000002453000012017110820171108000000000000000000+000000958751502+00000000101084410IBANK PAYMENT FROM   SETTLEMENT                   SAGE PAY  iPay P2769F3        ZS57CWCK+000000000 +000000000+000000000 000077669000000003000000000000000000000000000000000000000                             0330            000000000000000                                                                                                   0000000000000000                0000000000000000000                              0000024345151                      
2000000000000000000002453000012017110820171108000000000000000000+000000820622552+00000000101084410IBANK PAYMENT FROM   SETTLEMENT                   SAGE PAY  iPay P2769F3        HV97FWP +000000000 +000000000+000000000 000077669000000003000000000000000000000000000000000000000                             0330            000000000000000                                                                                                   0000000000000000                0000000000000000000                              0000024345151                      
2000000000000000000002453000012017110820171108000000000000000000+000000335164793+00000000101084410IBANK PAYMENT FROM   SETTLEMENT                   SAGE PAY  iPay P2769F3        RQ48RICR+000000000 +000000000+000000000 000077669000000003000000000000000000000000000000000000000                             0330            000000000000000                                                                                                   0000000000000000                0000000000000000000                              0000024345151                      
2000000000000000000002453000012017110820171108000000000000000000-000000523806979+00000000101084410IBANK PAYMENT FROM   SETTLEMENT                   SAGE PAY  iPay P2769F3        JW93KDCW+000000000 +000000000+000000000 000077669000000003000000000000000000000000000000000000000                             0330            000000000000000                                                                                                   0000000000000000                0000000000000000000                              0000024345151                      
2000000000000000000002453000012017110820171108000000000000000000-000000495036906+00000000101084410IBANK PAYMENT FROM   SETTLEMENT                   SAGE PAY  iPay P2769F3        ZA05FXL +000000000 +000000000+000000000 000077669000000003000000000000000000000000000000000000000                             0330            000000000000000                                                                                                   0000000000000000                0000000000000000000                              0000024345151                      
2000000000000000000002453000012017110820171108000000000000000000-000000906458734+00000000101084410IBANK PAYMENT FROM   SETTLEMENT                   SAGE PAY  iPay P2769F3        VW04STIA+000000000 +000000000+000000000 000077669000000003000000000000000000000000000000000000000                             0330            000000000000000                                                                                                   0000000000000000                0000000000000000000                              0000024345151                      
2000000000000000000002453000012017110820171108000000000000000000+000000972111855+00000000101084410IBANK PAYMENT FROM   SETTLEMENT                   SAGE PAY  iPay P2769F3        PV88KWTK+000000000 +000000000+000000000 000077669000000003000000000000000000000000000000000000000                             0330            000000000000000                                                                                                   0000000000000000                0000000000000000000                              0000024345151                      
2000000000000000000002453000012017110820171108000000000000000000+000000973577514+00000000101084410IBANK PAYMENT FROM   SETTLEMENT                   SAGE PAY  iPay P2769F3        YG44TDI +000000000 +000000000+000000000 000077669000000003000000000000000000000000000000000000000                             0330            000000000000000                                                                                                   0000000000000000                0000000000000000000                              0000024345151                      
2000000000000000000002453000012017110820171108000000000000000000+000000310584133+00000000101084410IBANK PAYMENT FROM   SETTLEMENT                   SAGE PAY  iPay P2769F3        LX85CSPF+000000000 +000000000+000000000 000077669000000003000000000000000000000000000000000000000                             0330            000000000000000                                                                                                   0000000000000000                0000000000000000000                              0000024345151                      
2000000000000000000002453000012017110820171108000000000000000000-000000346346631+00000000101084410IBANK PAYMENT FROM   SETTLEMENT                   SAGE PAY  iPay P2769F3        PS20KWA +000000000 +000000000+000000000 000077669000000003000000000000000000000000000000000000000                             0330            000000000000000                                                                                                   0000000000000000                0000000000000000000                              0000024345151                      
2000000000000000000002453000012017110820171108000000000000000000-000000398879725+00000000101084410IBANK PAYMENT FROM   SETTLEMENT                   SAGE PAY  iPay P2769F3        MP90CCIF+000000000 +000000000+000000000 000077669000000003000000000000000000000000000000000000000                             0330            000000000000000                                                                                                   0000000000000000                0000000000000000000                              0000024345151                      
2000000000000000000002453000012017110820171108000000000000000000+000000226344688+00000000101084410IBANK PAYMENT FROM   SETTLEMENT                   SAGE PAY  iPay P2769F3        JS59OFPC+000000000 +000000000+000000000 000077669000000003000000000000000000000000000000000000000                             0330            000000000000000                                                                                                   0000000000000000                0000000000000000000                              0000024345151                      
89999999999999999999                                            +000002814423775                                                                                                           0000000028                                                                                                                                                                                                                                                                                                                            000002434                            
99999999999999999999P20171109 